{
  "_format": "hh3-artifact-1",
  "contractName": "DiplomaStorage",
  "sourceName": "contracts/diplomaStorage.sol",
  "abi": [
    {
      "anonymous": false,
      "inputs": [
        {
          "indexed": true,
          "internalType": "string",
          "name": "documentHash",
          "type": "string"
        },
        {
          "indexed": false,
          "internalType": "string",
          "name": "diplomaNumber",
          "type": "string"
        },
        {
          "indexed": false,
          "internalType": "enum DiplomaStorage.Status",
          "name": "status",
          "type": "uint8"
        }
      ],
      "name": "DiplomaAdded",
      "type": "event"
    },
    {
      "anonymous": false,
      "inputs": [
        {
          "indexed": true,
          "internalType": "string",
          "name": "documentHash",
          "type": "string"
        },
        {
          "indexed": false,
          "internalType": "enum DiplomaStorage.Status",
          "name": "newStatus",
          "type": "uint8"
        }
      ],
      "name": "StatusUpdated",
      "type": "event"
    },
    {
      "inputs": [
        {
          "internalType": "string",
          "name": "",
          "type": "string"
        }
      ],
      "name": "diplomas",
      "outputs": [
        {
          "internalType": "string",
          "name": "id",
          "type": "string"
        },
        {
          "internalType": "string",
          "name": "studentId",
          "type": "string"
        },
        {
          "internalType": "string",
          "name": "universityId",
          "type": "string"
        },
        {
          "internalType": "string",
          "name": "diplomaNumber",
          "type": "string"
        },
        {
          "internalType": "string",
          "name": "ipfsCid",
          "type": "string"
        },
        {
          "internalType": "string",
          "name": "documentHash",
          "type": "string"
        },
        {
          "internalType": "enum DiplomaStorage.Status",
          "name": "status",
          "type": "uint8"
        },
        {
          "internalType": "uint256",
          "name": "issuedAt",
          "type": "uint256"
        }
      ],
      "stateMutability": "view",
      "type": "function"
    },
    {
      "inputs": [
        {
          "internalType": "string",
          "name": "_documentHash",
          "type": "string"
        }
      ],
      "name": "getDiploma",
      "outputs": [
        {
          "components": [
            {
              "internalType": "string",
              "name": "id",
              "type": "string"
            },
            {
              "internalType": "string",
              "name": "studentId",
              "type": "string"
            },
            {
              "internalType": "string",
              "name": "universityId",
              "type": "string"
            },
            {
              "internalType": "string",
              "name": "diplomaNumber",
              "type": "string"
            },
            {
              "internalType": "string",
              "name": "ipfsCid",
              "type": "string"
            },
            {
              "internalType": "string",
              "name": "documentHash",
              "type": "string"
            },
            {
              "internalType": "enum DiplomaStorage.Status",
              "name": "status",
              "type": "uint8"
            },
            {
              "internalType": "uint256",
              "name": "issuedAt",
              "type": "uint256"
            }
          ],
          "internalType": "struct DiplomaStorage.Diploma",
          "name": "",
          "type": "tuple"
        }
      ],
      "stateMutability": "view",
      "type": "function"
    },
    {
      "inputs": [
        {
          "internalType": "string",
          "name": "_id",
          "type": "string"
        },
        {
          "internalType": "string",
          "name": "_studentId",
          "type": "string"
        },
        {
          "internalType": "string",
          "name": "_universityId",
          "type": "string"
        },
        {
          "internalType": "string",
          "name": "_diplomaNumber",
          "type": "string"
        },
        {
          "internalType": "string",
          "name": "_ipfsCid",
          "type": "string"
        },
        {
          "internalType": "string",
          "name": "_documentHash",
          "type": "string"
        },
        {
          "internalType": "uint256",
          "name": "_issuedAt",
          "type": "uint256"
        }
      ],
      "name": "tambahIjazah",
      "outputs": [],
      "stateMutability": "nonpayable",
      "type": "function"
    },
    {
      "inputs": [
        {
          "internalType": "string",
          "name": "_documentHash",
          "type": "string"
        },
        {
          "internalType": "enum DiplomaStorage.Status",
          "name": "_status",
          "type": "uint8"
        }
      ],
      "name": "updateStatus",
      "outputs": [],
      "stateMutability": "nonpayable",
      "type": "function"
    }
  ],
  "bytecode": "0x6080604052348015600e575f5ffd5b506116918061001c5f395ff3fe608060405234801561000f575f5ffd5b506004361061004a575f3560e01c80631ce8dca21461004e5780634989e1d81461008557806353616982146100a15780639c88cd14146100bd575b5f5ffd5b61006860048036038101906100639190610ce8565b6100ed565b60405161007c989796959493929190610e1a565b60405180910390f35b61009f600480360381019061009a9190610eea565b610478565b005b6100bb60048036038101906100b69190611052565b610665565b005b6100d760048036038101906100d29190610ce8565b61076b565b6040516100e491906111e2565b60405180910390f35b5f818051602081018201805184825260208301602085012081835280955050505050505f91509050805f0180546101239061122f565b80601f016020809104026020016040519081016040528092919081815260200182805461014f9061122f565b801561019a5780601f106101715761010080835404028352916020019161019a565b820191905f5260205f20905b81548152906001019060200180831161017d57829003601f168201915b5050505050908060010180546101af9061122f565b80601f01602080910402602001604051908101604052809291908181526020018280546101db9061122f565b80156102265780601f106101fd57610100808354040283529160200191610226565b820191905f5260205f20905b81548152906001019060200180831161020957829003601f168201915b50505050509080600201805461023b9061122f565b80601f01602080910402602001604051908101604052809291908181526020018280546102679061122f565b80156102b25780601f10610289576101008083540402835291602001916102b2565b820191905f5260205f20905b81548152906001019060200180831161029557829003601f168201915b5050505050908060030180546102c79061122f565b80601f01602080910402602001604051908101604052809291908181526020018280546102f39061122f565b801561033e5780601f106103155761010080835404028352916020019161033e565b820191905f5260205f20905b81548152906001019060200180831161032157829003601f168201915b5050505050908060040180546103539061122f565b80601f016020809104026020016040519081016040528092919081815260200182805461037f9061122f565b80156103ca5780601f106103a1576101008083540402835291602001916103ca565b820191905f5260205f20905b8154815290600101906020018083116103ad57829003601f168201915b5050505050908060050180546103df9061122f565b80601f016020809104026020016040519081016040528092919081815260200182805461040b9061122f565b80156104565780601f1061042d57610100808354040283529160200191610456565b820191905f5260205f20905b81548152906001019060200180831161043957829003601f168201915b505050505090806006015f9054906101000a900460ff16908060070154905088565b5f5f836040516104889190611299565b908152602001604051809103902060050180546104a49061122f565b9050146104e6576040517f08c379a00000000000000000000000000000000000000000000000000000000081526004016104dd9061131f565b60405180910390fd5b6040518061010001604052808881526020018781526020018681526020018581526020018481526020018381526020015f600181111561052957610528610d8f565b5b8152602001828152505f836040516105419190611299565b90815260200160405180910390205f820151815f01908161056291906114dd565b50602082015181600101908161057891906114dd565b50604082015181600201908161058e91906114dd565b5060608201518160030190816105a491906114dd565b5060808201518160040190816105ba91906114dd565b5060a08201518160050190816105d091906114dd565b5060c0820151816006015f6101000a81548160ff021916908360018111156105fb576105fa610d8f565b5b021790555060e082015181600701559050508160405161061b9190611299565b60405180910390207f241acd131af4b8caab77a44834ad81bac82d6360e2e39ab1efd95d049091a248855f6040516106549291906115ac565b60405180910390a250505050505050565b5f5f836040516106759190611299565b908152602001604051809103902060050180546106919061122f565b9050116106d3576040517f08c379a00000000000000000000000000000000000000000000000000000000081526004016106ca90611624565b60405180910390fd5b805f836040516106e39190611299565b90815260200160405180910390206006015f6101000a81548160ff0219169083600181111561071557610714610d8f565b5b0217905550816040516107289190611299565b60405180910390207f4e407d4f938199e743ff3f9c87db0c2b408db2c74b3b83b01299015302ef05328260405161075f9190611642565b60405180910390a25050565b610773610b46565b5f826040516107829190611299565b9081526020016040518091039020604051806101000160405290815f820180546107ab9061122f565b80601f01602080910402602001604051908101604052809291908181526020018280546107d79061122f565b80156108225780601f106107f957610100808354040283529160200191610822565b820191905f5260205f20905b81548152906001019060200180831161080557829003601f168201915b5050505050815260200160018201805461083b9061122f565b80601f01602080910402602001604051908101604052809291908181526020018280546108679061122f565b80156108b25780601f10610889576101008083540402835291602001916108b2565b820191905f5260205f20905b81548152906001019060200180831161089557829003601f168201915b505050505081526020016002820180546108cb9061122f565b80601f01602080910402602001604051908101604052809291908181526020018280546108f79061122f565b80156109425780601f1061091957610100808354040283529160200191610942565b820191905f5260205f20905b81548152906001019060200180831161092557829003601f168201915b5050505050815260200160038201805461095b9061122f565b80601f01602080910402602001604051908101604052809291908181526020018280546109879061122f565b80156109d25780601f106109a9576101008083540402835291602001916109d2565b820191905f5260205f20905b8154815290600101906020018083116109b557829003601f168201915b505050505081526020016004820180546109eb9061122f565b80601f0160208091040260200160405190810160405280929190818152602001828054610a179061122f565b8015610a625780601f10610a3957610100808354040283529160200191610a62565b820191905f5260205f20905b815481529060010190602001808311610a4557829003601f168201915b50505050508152602001600582018054610a7b9061122f565b80601f0160208091040260200160405190810160405280929190818152602001828054610aa79061122f565b8015610af25780601f10610ac957610100808354040283529160200191610af2565b820191905f5260205f20905b815481529060010190602001808311610ad557829003601f168201915b50505050508152602001600682015f9054906101000a900460ff166001811115610b1f57610b1e610d8f565b5b6001811115610b3157610b30610d8f565b5b81526020016007820154815250509050919050565b6040518061010001604052806060815260200160608152602001606081526020016060815260200160608152602001606081526020015f6001811115610b8f57610b8e610d8f565b5b81526020015f81525090565b5f604051905090565b5f5ffd5b5f5ffd5b5f5ffd5b5f5ffd5b5f601f19601f8301169050919050565b7f4e487b71000000000000000000000000000000000000000000000000000000005f52604160045260245ffd5b610bfa82610bb4565b810181811067ffffffffffffffff82111715610c1957610c18610bc4565b5b80604052505050565b5f610c2b610b9b565b9050610c378282610bf1565b919050565b5f67ffffffffffffffff821115610c5657610c55610bc4565b5b610c5f82610bb4565b9050602081019050919050565b828183375f83830152505050565b5f610c8c610c8784610c3c565b610c22565b905082815260208101848484011115610ca857610ca7610bb0565b5b610cb3848285610c6c565b509392505050565b5f82601f830112610ccf57610cce610bac565b5b8135610cdf848260208601610c7a565b91505092915050565b5f60208284031215610cfd57610cfc610ba4565b5b5f82013567ffffffffffffffff811115610d1a57610d19610ba8565b5b610d2684828501610cbb565b91505092915050565b5f81519050919050565b5f82825260208201905092915050565b8281835e5f83830152505050565b5f610d6182610d2f565b610d6b8185610d39565b9350610d7b818560208601610d49565b610d8481610bb4565b840191505092915050565b7f4e487b71000000000000000000000000000000000000000000000000000000005f52602160045260245ffd5b60028110610dcd57610dcc610d8f565b5b50565b5f819050610ddd82610dbc565b919050565b5f610dec82610dd0565b9050919050565b610dfc81610de2565b82525050565b5f819050919050565b610e1481610e02565b82525050565b5f610100820190508181035f830152610e33818b610d57565b90508181036020830152610e47818a610d57565b90508181036040830152610e5b8189610d57565b90508181036060830152610e6f8188610d57565b90508181036080830152610e838187610d57565b905081810360a0830152610e978186610d57565b9050610ea660c0830185610df3565b610eb360e0830184610e0b565b9998505050505050505050565b610ec981610e02565b8114610ed3575f5ffd5b50565b5f81359050610ee481610ec0565b92915050565b5f5f5f5f5f5f5f60e0888a031215610f0557610f04610ba4565b5b5f88013567ffffffffffffffff811115610f2257610f21610ba8565b5b610f2e8a828b01610cbb565b975050602088013567ffffffffffffffff811115610f4f57610f4e610ba8565b5b610f5b8a828b01610cbb565b965050604088013567ffffffffffffffff811115610f7c57610f7b610ba8565b5b610f888a828b01610cbb565b955050606088013567ffffffffffffffff811115610fa957610fa8610ba8565b5b610fb58a828b01610cbb565b945050608088013567ffffffffffffffff811115610fd657610fd5610ba8565b5b610fe28a828b01610cbb565b93505060a088013567ffffffffffffffff81111561100357611002610ba8565b5b61100f8a828b01610cbb565b92505060c06110208a828b01610ed6565b91505092959891949750929550565b6002811061103b575f5ffd5b50565b5f8135905061104c8161102f565b92915050565b5f5f6040838503121561106857611067610ba4565b5b5f83013567ffffffffffffffff81111561108557611084610ba8565b5b61109185828601610cbb565b92505060206110a28582860161103e565b9150509250929050565b5f82825260208201905092915050565b5f6110c682610d2f565b6110d081856110ac565b93506110e0818560208601610d49565b6110e981610bb4565b840191505092915050565b6110fd81610de2565b82525050565b61110c81610e02565b82525050565b5f61010083015f8301518482035f86015261112d82826110bc565b9150506020830151848203602086015261114782826110bc565b9150506040830151848203604086015261116182826110bc565b9150506060830151848203606086015261117b82826110bc565b9150506080830151848203608086015261119582826110bc565b91505060a083015184820360a08601526111af82826110bc565b91505060c08301516111c460c08601826110f4565b5060e08301516111d760e0860182611103565b508091505092915050565b5f6020820190508181035f8301526111fa8184611112565b905092915050565b7f4e487b71000000000000000000000000000000000000000000000000000000005f52602260045260245ffd5b5f600282049050600182168061124657607f821691505b60208210810361125957611258611202565b5b50919050565b5f81905092915050565b5f61127382610d2f565b61127d818561125f565b935061128d818560208601610d49565b80840191505092915050565b5f6112a48284611269565b915081905092915050565b7f4469706c6f6d612064656e67616e206861736820696e692073756461682061645f8201527f6100000000000000000000000000000000000000000000000000000000000000602082015250565b5f611309602183610d39565b9150611314826112af565b604082019050919050565b5f6020820190508181035f830152611336816112fd565b9050919050565b5f819050815f5260205f209050919050565b5f6020601f8301049050919050565b5f82821b905092915050565b5f600883026113997fffffffffffffffffffffffffffffffffffffffffffffffffffffffffffffffff8261135e565b6113a3868361135e565b95508019841693508086168417925050509392505050565b5f819050919050565b5f6113de6113d96113d484610e02565b6113bb565b610e02565b9050919050565b5f819050919050565b6113f7836113c4565b61140b611403826113e5565b84845461136a565b825550505050565b5f5f905090565b611422611413565b61142d8184846113ee565b505050565b5b81811015611450576114455f8261141a565b600181019050611433565b5050565b601f821115611495576114668161133d565b61146f8461134f565b8101602085101561147e578190505b61149261148a8561134f565b830182611432565b50505b505050565b5f82821c905092915050565b5f6114b55f198460080261149a565b1980831691505092915050565b5f6114cd83836114a6565b9150826002028217905092915050565b6114e682610d2f565b67ffffffffffffffff8111156114ff576114fe610bc4565b5b611509825461122f565b611514828285611454565b5f60209050601f831160018114611545575f8415611533578287015190505b61153d85826114c2565b8655506115a4565b601f1984166115538661133d565b5f5b8281101561157a57848901518255600182019150602085019450602081019050611555565b868310156115975784890151611593601f8916826114a6565b8355505b6001600288020188555050505b505050505050565b5f6040820190508181035f8301526115c48185610d57565b90506115d36020830184610df3565b9392505050565b7f4469706c6f6d6120746964616b20646974656d756b616e0000000000000000005f82015250565b5f61160e601783610d39565b9150611619826115da565b602082019050919050565b5f6020820190508181035f83015261163b81611602565b9050919050565b5f6020820190506116555f830184610df3565b9291505056fea2646970667358221220f849a9260935e13e5d843a814453d541ae9eea8949d09af5f10536f7e71624d064736f6c634300081c0033",
  "linkReferences": {},
  "deployedLinkReferences": {},
  "immutableReferences": {},
  "inputSourceName": "project/contracts/diplomaStorage.sol",
  "buildInfoId": "solc-0_8_28-d16a7d9c79aa33f6b1c4ae782f921e6bc7f8d100"
}